:03000000020A569B
:0C0A5600787FE4F6D8FD758110020800DE
:100963002A2A2A57454C434F4D452A2A2A005649DD
:100973005349544F525320494E004F46464943452D
:10098300203D20002A2A2A494C4C4547414C2A2A1B
:020993002A0038
:1009F1008B0E8A0F8910AB0EAA0FA9101208F5FFF2
:100A010060171209DD74012510F510E4350FF50F9B
:0A0A11007F647E0012099F80DD2241
:0A0995002430FF1209DD7F707E1789
:10099F00E4FDFCC3ED9FEC9E5019758901758CFC2D
:1009AF00758A66D28C308DFDC28DC28C0DBD000153
:0309BF000C80E0C9
:0109C2002212
:100A1B007FCB120A2E7F301209DD7F647E00120914
:030A2B009F7FCCDE
:100A2E00C2A2C2A18FB0D2A37F057E0012099FC2BF
:040A3E00A302099F67
:1009C300850A0C850B0D7FCB120A2EAE0CAF0D7C66
:0A09D300007D0A12090EEF2430FF28
:1009DD00D2A1C2A28FB0D2A37F057E0012099FC201
:0409ED00A302099FB9
:100A42007F38120A2E7F0C120A2E7F01120A2E7F85
:040A520080020A2EE6
:10080000E4F508F509F50AF50BF50CF50D7590FF03
:10081000F5B0120A427F82120A2E7BFF7A097963B1
:100820001209F17FB87E0B12099F7F01120A2E7FF9
:1008300082120A2E7BFF7A0979711209F17FC212A6
:100840000A2E7BFF7A09797D1209F17FCB120A2EDD
:10085000E5092430FF1209DD20903930973605096B
:10086000E5097002050885080AF50BD3E50B940924
:10087000E50A940040161209C37FC8120A27AE0C7D
:10088000AF0D7C007D0A12090EED8005120A1BE5F2
:100890000B1209953090C12097BEE50B450A7019DF
:1008A0007F01120A2E7F82120A2E7BFF7A09798736
:1008B0001209F112099B020812E5091509700215C7
:1008C0000885080A85090BD3E50B9409E50A94000D
:1008D00040181209C3120A25AE0CAF0D7C007D0A28
:1008E00012090EED120995020858120A1BE50B12A7
:0508F000099502085803
:1008F500BB010689828A83E0225002E722BBFE0201
:09090500E32289828A83E4932233
:10090E00BC000BBE0029EF8DF084FFADF022E4CCCD
:10091E00F875F008EF2FFFEE33FEEC33FCEE9DEC96
:10092E00984005FCEE9DFE0FD5F0E9E4CEFD22EDDC
:10093E00F8F5F0EE8420D21CFEADF075F008EF2F26
:10094E00FFED33FD4007985006D5F0F222C398FD17
:05095E000FD5F0EA22B4
:00000001FF
